:100000000207578F993099FDC299220207E3438E68
:10001000805389F0758ACD758CD4C28DD28CD2A9CB
:10002000D2AF22020A64759850438E40538EFE531D
:10003000890F758BE0758DFEC2ABD28ED2ACD2AF7C
:01004000229D
:1000430002097B020251E86480F8E933E833601166
:100053000460F0ED33EC337009E8FCE9FDEAFEEBF4
:10006300FF220460DED3EB9FEA9EE99DE8C2E78CA2
:10007300F0C2F795F0400CE8CCF8E9CDF9EACEFAF6
:10008300EBCFFB12021C85D0F05804700320D5B3CC
:10009300E80470075002B2D502025B92D5EC04600B
:1000A300F7E4CCC0E0C398F8603B94186008400DB7
:1000B300D0E0FB020233E4FBFAC9FC8028E830E419
:1000C30006E4C9FBE4CAFCE830E305E4C9CACBFC97
:1000D300E854076010F8C3E913F9EA13FAEB13FBCA
:1000E300EC13FCD8F130F52FC3E49CFCEF9BFFEE3F
:1000F3009AFEED99FDD0E0FBEF4E4D4C701222DBE2
:1001030003020258EC2CFCEF33FFEE33FEED33FD1C
:10011300ED30E7EB020233EF2BFFEE3AFEED39FD54
:10012300D0E0FB50130BBB000302025BED13FDEEAB
:1001330013FEEF13FFEC13FC02023302025BEC5DD0
:10014300046005E85904700302025112021C5804AA
:1001530060F6EC4860F2EC7004FDFEFF22C860DB41
:100163002481C85009C3986002500602025898506F
:10017300CAF582E9294B4A7005AB8202024775F042
:10018300007C1A7880C3EF9BEE9AED99400DC3EF84
:100193009BFFEE9AFEED99FDE842F0DC23ACF0D034
:1001A300E0FFD0E0FED0E0FDAB8220E7101BEB6068
:1001B300BAEC2CFCEF33FFEE33FEED33FD020233DA
:1001C300E803F830E705C0F075F000EF2FFFEE33DA
:1001D300FEED33FD40B830E7C280AA75F020800EF3
:1001E30075F010800575F0087D007E007F00339266
:1001F300D530D50312033BEC334010EF33FFEE331E
:10020300FEED33FDEC33FCD5F0ED22E5F0247EA2C8
:10021300D513CC92E7CDCEFF22E9D2E7C933E83339
:10022300F892D5EDD2E7CD33EC33FC5002B2D522B0
:10023300EC30E7100FBF000C0EBE00080DBD00042C
:100243000BEB6014A2D5EB13FCED92E7FD2274FFD8
:10025300FCFDFEFF22E480F8A2D574FF13FC7D8031
:10026300E480EFBB010689828A83E0225002E72201
:10027300BBFE02E32289828A83E49322BB010CE55D
:100283008229F582E5833AF583E0225006E9258247
:10029300F8E622BBFE06E92582F8E222E58229F58B
:1002A30082E5833AF583E49322BB010689828A833C
:1002B300F0225002F722BBFE01F322EF8DF0A4A837
:1002C300F0CF8CF0A428CE8DF0A42EFE22BC000B20
:1002D300BE0029EF8DF084FFADF022E4CCF875F079
:1002E30008EF2FFFEE33FEEC33FCEE9DEC98400558
:1002F300FCEE9DFE0FD5F0E9E4CEFD22EDF8F5F01E
:10030300EE8420D21CFEADF075F008EF2FFFED3325
:10031300FD4007985006D5F0F222C398FD0FD5F0A3
:10032300EA22A3F8E0C5F025F0F0E5821582700219
:100333001583E0C838F0E822C3E49FFFE49EFEE49F
:100343009DFDE49CFC22ECF0A3EDF0A3EEF0A3EF03
:10035300F022A8828583F0D083D08212036C12032B
:100363006C12036C12036CE473E493A3C583C5F0AE
:10037300C583C8C582C8F0A3C583C5F0C583C8C5F6
:1003830082C822E4900012F0A304F0120AAE12090C
:10039300A01206B3900012EFF06405700B120A7CF2
:1003A30090000FE0045403F090000BE075F03CA4C0
:1003B300FF90000DE0F97C002FFDEC35F0FC900080
:1003C30002E075F03CA4FFA3E07A002FFFEA35F0CA
:1003D300FEC3EF9DEC6480F8EE6480985038900083
:1003E3000BE075F03CA4FFE97C002FFDEC35F0FC3D
:1003F300A3E075F03CA4FF90000EE02FFFEA35F078
:10040300FED3EF9DEC6480F8EE6480984008900082
:10041300137401F08005E4900013F0900013E07072
:1004230003020513900012E06401703390000FF093
:10043300120A7C7BFF7A0A79F27D017F0112094E51
:100443007BFF7A0A79FA7D017F0212094E7BFF7ADC
:100453000B79021208E87BFF7A0B790F12091B90C4
:100463000012E06402703390000FF0120A7C7BFFED
:100473007A0A79F27D017F0112094E7BFF7A0B79AB
:10048300207D017F0212094E7BFF7A0B792A120825
:10049300E87BFF7A0B793712091B900012E06403A3
:1004A300703390000FF0120A7C7BFF7A0B794A7D40
:1004B300017F0112094E7BFF7A0B79567D017F0282
:1004C30012094E7BFF7A0B79671208E87BFF7A0BE0
:1004D300797412091B900012E06404703390000FCA
:1004E300F0120A7C7BFF7A0B794A7D017F011209A6
:1004F3004E7BFF7A0B79567D017F0212094E7BFFFB
:100503007A0B79921208E87BFF7A0B797412091B34
:1005130090000FE064017029900012E0FB7A006400
:1005230006701390000BE02401FFE433FE7C007D92
:10053300181202D0EDF0EB64074A707590000D803D
:100543006090000FE064027029900012E0FB7A00D3
:1005530064067013900002E02401FFE433FE7C0084
:100563007D181202D0EDF0EB64074A70449000034B
:10057300802F90000FE064037037900012E0FB7A45
:10058300006406701390000CE02401FFE433FE7C4A
:10059300007D181202D0EDF0EB64074A701390004F
:1005A3000EE02401FFE433FE7C007D3C1202D0ED1B
:1005B300F090000FE0FF6401600DEF64026008EF4C
:1005C300640360030203941205D00203947BFF7A51
:1005D3000A79DF7D017F0112094E90000BE0FB7A5F
:1005E300009000187402F07D097F01120A0A7BFF54
:1005F3007A0A79E87D0B7F0112094E90000DE0FB2A
:100603007A009000187402F07D0C7F01120A0A7BB5
:10061300FF7A0A79E87D0E7F0112094E90000AE005
:10062300FB7A009000187402F07D0F7F01120A0A12
:100633007BFF7A0A79EA7D017F0212094E9000025C
:10064300E0FB7A009000187402F07D04FF120A0A9E
:100653007BFF7A0A79E87D067F0212094E90000338
:10066300E0FB7A009000187402F07D07FF120A0A7B
:100673007BFF7A0A79EF7D097F0212094E90000C05
:10068300E0FB7A009000187402F07D0BFF120A0A57
:100693007BFF7A0A79E87D0D7F0212094E90000EE6
:1006A300E0FB7A009000187402F07D0EFF020A0A44
:1006B300E4900014F020A0127F0FFE120A4B20A03A
:1006C300069000147401F030A0FD20A1137F0F7E6B
:1006D30000120A4B20A1069000147402F030A1FD11
:1006E30020A2137F0F7E00120A4B20A20690001453
:1006F3007403F030A2FD20A3137F0F7E00120A4B78
:1007030020A3069000147404F030A3FD20B2137FDD
:100713000F7E00120A4B20B2069000147405F030CD
:10072300B2FD20B3137F0F7E00120A4B20B3069055
:1007330000147406F030B3FD20B5137F0F7E001252
:100743000A4B20B5069000147407F030B5FD9000F5
:1007530014E0FF22787FE4F6D8FD75812002079E1E
:10076300020386E493A3F8E493A34003F68001F223
:1007730008DFF48029E493A3F85407240CC8C33397
:10078300C4540F4420C8834004F456800146F6DF66
:10079300E4800B01020408102040809008AFE47E3F
:1007A300019360BCA3FF543F30E509541FFEE4935B
:1007B300A360010ECF54C025E060A840B8E493A322
:1007C300FAE493A3F8E493A3C8C582C8CAC583CA4D
:1007D300F0A3C8C582C8CAC583CADFE9DEE780BE05
:1007E300C0E0C083C082C0D0900001E004F0700676
:1007F300900000E004F0C3900001E094E890000052
:10080300E09403400AE4F0A3F090000AE004F090BF
:10081300000AE0C3943C748094804008E4F09000A4
:100823000DE004F090000DE0C3943C74809480408C
:1008330008E4F090000BE004F090000BE0C3941880
:10084300748094804002E4F0D0D0D082D083D0E092
:1008530032EF24FFFDEE34FFFC7F0A900019EEF027
:10086300A3EFF0A3ECF0A3EDF0A3E4F0A304F0E412
:10087300FBEBFFD390001CE09F7480F890001BE01B
:10088300648098401E90001DE0FEA3E0FF900019D5
:10089300E0FCA3E0FD1202BE90001DEEF0A3EFF01A
:1008A3000B80CE90001DE0FEA3E0FF22430004FF77
:1008B3000ACC430007FF0AD441000F0041000B0993
:1008C30041000D0041000A00410002084100031EDF
:1008D30041000C1741000E1E4100210041001F0082
:1008E3004100200000900014EBF0A3EAF0A3E9F02C
:1008F300900014E0FBA3E0FAA3E0F912026660178C
:10090300900014A3E475F001120325A9F0FA120272
:1009130066FF12000380D922900014EBF0A3EAF0E3
:10092300A3E9F0900014E0FBA3E0FAA3E0F91202BC
:10093300666017900014A3E475F001120325A9F073
:10094300FA120266FF120AC480D922900014EBF057
:10095300A3EAF0A3E9F01209ECE4FD900014E0FB34
:10096300A3E0FAA3E0F98D8275830012027FFF6092
:10097300061209DD0D80E422C0E0C083C082E59A3F
:1009830030E009539AFE900011E59BF0E59A30E1BF
:1009930005539AFDC200D082D083D0E03290000488
:1009A300E0FBA3E0FAA3E0F97D017F0112094E9079
:1009B3000007E0FBA3E0FAA3E0F97D017F0202094F
:1009C3004EE0FCA3E0FDCFCDCFCECCCE1202D07C47
:1009D300007D0A1202D0ED2430FFD2A6120A90C283
:1009E300A7020A96EAF0A3EBF0AE07EEFB7A0064E7
:1009F300017004ED148009EB64024A7009ED243F91
:100A03004480FF120ABA229000161209E7A3E0FA03
:100A1300EAFF7E00D3940074809480400C12085443
:100A23009000161209C41A80E722759850438E016C
:100A3300438E0475D7E075D6FE438E1053AFFE4345
:100A4300AF01D2AF53BAFE22AD07AC06E4FBFAC343
:100A5300EB9DEA9C500A120AA20BBB00010A80EF2D
:100A630022C0E0C083C082309808C298900010E58D
:100A730099F0D082D083D0E0327F38120ABA7F0C4B
:100A8300120ABA7F06120ABA7F01020ABAC2A58FF6
:100A930080D2A70000007F0B7EBEDEFEDFFC2200BB
:100AA30000007F0B7EBEDEFEDFFC2212000E120A68
:100AB3007C120026020A2DC2A6120A90C2A7020ABD
:100AC300962000FDD2008F9B2257656C636F6D6586
:100AD300005374617274204D656E750043757254D2
:100AE300696D653A002D005365743A002D2D00435E
:100AF3006F6D6520696E004D7920646561720041F8
:100B0300383A30322F30312A4D503300436F6D6500
:100B130020696E2C4D79206465617221004D792026
:100B23006672696E65640041383A30322F30322A7A
:100B33004D503300436F6D6520696E2C4D792066EF
:100B430072696E65642100506C656173652077611D
:100B5300697400492077696C6C206F70656E20732F
:100B63006F6F6E0041383A30322F30332A4D503395
:100B730000506C6561736520776169742C49207737
:100B8300696C6C206F70656E20736F6F6E2100410E
:0C0B9300383A30322F30342A4D503300F5
:00000001FF
